:100000000C945A000C9464000C9464000C946400EA
:100010000C9464000C9464000C9464000C94A10093
:100020000C94B4000C9464000C9464000C94640070
:100030000C9464000C9464000C9464000C946400B0
:100040000C9464000C9464000C9464000C946400A0
:100050000C9464000C9466000C9464000C9464008E
:100060000C9464000C9464000C9464000C94640080
:100070000C9464000C9464000C9464000C94640070
:100080000C9464000C9464000C9464000C94640060
:100090000C9464000C9464000C9464000C94640050
:1000A0000C9464000C9464000C9464000C94640040
:1000B0000C94640011241FBECFEFD8E0DEBFCDBF8B
:1000C0000E94F4000C942C020C9400001F920F92DA
:1000D0000FB60F9211242F933F934F935F936F931B
:1000E0007F938F939F93AF93BF93EF93FF938091F1
:1000F0007800909179002091B300289FB001299F4A
:10010000700D112480E090E00E94310120E030E089
:1001100040E85AE30E9497010E9402016093B400F4
:10012000FF91EF91BF91AF919F918F917F916F91CF
:100130005F914F913F912F910F900FBE0F901F90A5
:1001400018951F920F920FB60F9211248F938091E2
:10015000B400882319F085B1806285B98F910F9022
:100160000FBE0F901F9018951F920F920FB60F920F
:1001700011248F9385B18F7D85B98F910F900FBE1C
:100180000F901F901895ECE7F0E0808181648083E8
:10019000EAE7F0E080818F6A8083EBE7F0E080811E
:1001A00083608083089584B5826084BD8DE687BDB9
:1001B000EEE6F0E080818260808385B5856085BD54
:1001C0000895E0EBF0E08081826080838BE980938A
:1001D000B300E0E7F0E0808186608083E1EBF0E04F
:1001E00080818560808308958DEF87B984B18062B6
:1001F00084B90E94C3000E94D3000E94E100F894D9
:100200007894FFCF0E94760188F09F5798F0B92F1D
:100210009927B751B0F0E1F0660F771F881F991F3B
:100220001AF0BA95C9F714C0B13091F00E9490014C
:10023000B1E008950C949001672F782F8827B85F5C
:1002400039F0B93FCCF3869577956795B395D9F793
:100250003EF490958095709561957F4F8F4F9F4F9D
:100260000895E89409C097FB3EF4909580957095A9
:1002700061957F4F8F4F9F4F9923A9F0F92F96E9F2
:10028000BB279395F695879577956795B795F11167
:10029000F8CFFAF4BB0F11F460FF1BC06F5F7F4F04
:1002A0008F4F9F4F16C0882311F096E911C0772316
:1002B00021F09EE8872F762F05C0662371F096E81F
:1002C000862F70E060E02AF09A95660F771F881FEE
:1002D000DAF7880F9695879597F9089557FD905806
:1002E000440F551F59F05F3F71F04795880F97FBFA
:1002F000991F61F09F3F79F08795089512161306B4
:100300001406551FF2CF4695F1DF08C016161706E2
:100310001806991FF1CF8695710561050894089517
:10032000E894BB2766277727CB0197F908950E94A9
:10033000AA010C941B020E940D0238F00E941402C4
:1003400020F0952311F00C9404020C940A0211245D
:100350000C9491010E946E0170F3959FC1F3950F6B
:1003600050E0551F629FF001729FBB27F00DB11D39
:10037000639FAA27F00DB11DAA1F649F6627B00DC9
:10038000A11D661F829F2227B00DA11D621F739FB2
:10039000B00DA11D621F839FA00D611D221F749FC0
:1003A0003327A00D611D231F849F600D211D822F07
:1003B000762F6A2F11249F5750409AF0F1F088232E
:1003C0004AF0EE0FFF1FBB1F661F771F881F91505B
:1003D0005040A9F79E3F510580F00C9404020C9404
:1003E00091015F3FE4F3983ED4F386957795679546
:1003F000B795F795E7959F5FC1F7FE2B880F911D85
:100400009695879597F9089597F99F6780E870E02A
:1004100060E008959FEF80EC089500240A9416167A
:10042000170618060906089500240A9412161306E2
:10043000140605060895092E0394000C11F4882370
:1004400052F0BB0F40F4BF2B11F460FF04C06F5F8C
:0C0450007F4F8F4F9F4F0895F894FFCF0F
:00000001FF
