:100000000C945A000C946F000C946F000C946F00C9
:100010000C946F000C946F000C946F000C946F00A4
:100020000C946F000C946F000C946F000C946F0094
:100030000C946F000C946F000C946F000C946F0084
:100040000C946F000C946F000C946F000C946F0074
:100050000C946F000C946F000C946F000C946F0064
:100060000C946F000C946F000C946F000C946F0054
:100070000C946F000C946F000C946F000C946F0044
:100080000C946F000C946F000C946F000C946F0034
:100090000C946F000C946F000C946F000C946F0024
:1000A0000C946F000C946F000C946F000C946F0014
:1000B0000C946F0011241FBECFEFD8E0DEBFCDBF80
:1000C00011E0A0E0B1E0EAE5F1E002C005900D9298
:1000D000AC30B107D9F70E9481000C94AB000C94AE
:1000E0000000E1ECF0E0808188608083E2ECF0E0E9
:1000F00080818660808387E68093C4001092C5006B
:100100000895CF93DF93CDB7DEB72C970FB6F89451
:10011000DEBF0FBECDBF8CE0E0E0F1E0DE01119666
:1001200001900D928A95E1F70E94710020E030E085
:1001300008C08091C00085FFFCCF9093C6002F5F60
:100140003F4FE1E0F0E0EC0FFD1FE20FF31F908165
:0A0150009111EFCFEBCFF894FFCF31
:0C015A003832363435333834330A0D00A7
:00000001FF
