:100000000C945A000C946F000C946F000C946F00C9
:100010000C946F000C946F000C946F000C946F00A4
:100020000C946F000C946F000C946F000C946F0094
:100030000C946F000C946F000C946F000C946F0084
:100040000C946F000C946F000C946F000C946F0074
:100050000C946F000C946F000C946F000C946F0064
:100060000C946F000C946F000C946F000C946F0054
:100070000C946F000C946F000C946F000C946F0044
:100080000C946F000C946F000C946F000C946F0034
:100090000C946F000C946F000C946F000C946F0024
:1000A0000C946F000C946F000C946F000C946F0014
:1000B0000C946F0011241FBECFEFD8E0DEBFCDBF80
:1000C00011E0A0E0B1E0EEE1F6E002C005900D9293
:1000D000AA31B107D9F70E94F0020C940D030C94D9
:1000E000000085B18F7D85B92FEF8BE594E4215019
:1000F00080409040E1F700C00000089585B1806223
:1001000085B92FEF83EC99E0215080409040E1F7D2
:1001100000C0000085B18F7D85B92FEF83EC99E099
:10012000215080409040E1F700C00000089585B163
:10013000806285B92FEF8BE49DE121508040904093
:10014000E1F700C0000085B18F7D85B92FEF83EC0A
:1001500099E0215080409040E1F700C000000895F0
:100160000F931F93CF93DF938C01C0E0D0E0B4C115
:10017000813411F0813629F40E947E000E9497009C
:10018000A1C1823411F0823639F40E9497000E9496
:100190007E000E947E0096C1833411F0833649F4BC
:1001A0000E9497000E947E000E9497000E947E009D
:1001B00089C1843411F0843639F40E9497000E947A
:1001C0007E000E947E007EC1853411F0853619F4D0
:1001D0000E947E0077C1863411F0863649F40E9471
:1001E0007E000E947E000E9497000E947E006AC1ED
:1001F000873411F0873639F40E9497000E949700E7
:100200000E947E005FC1883411F0883649F40E9454
:100210007E000E947E000E947E000E947E0052C1ED
:10022000893411F0893629F40E947E000E947E00F4
:1002300049C18A3411F08A3649F40E947E000E9436
:1002400097000E9497000E9497003CC18B3411F0E8
:100250008B3639F40E9497000E947E000E9497001E
:1002600031C18C3411F08C3649F40E947E000E941A
:1002700097000E947E000E947E0024C18D3411F000
:100280008D3629F40E9497000E9497001BC18E347E
:1002900011F08E3629F40E9497000E947E0012C150
:1002A0008F3411F08F3639F40E9497000E94970026
:1002B0000E94970007C1803511F0803749F40E94F1
:1002C0007E000E9497000E9497000E947E00FAC064
:1002D000813511F0813749F40E9497000E94970000
:1002E0000E947E000E949700EDC0823511F0823797
:1002F00039F40E947E000E9497000E947E00E2C0B6
:10030000833511F0833739F40E947E000E947E000D
:100310000E947E00D7C0843511F0843719F40E9402
:100320009700D0C0853511F0853739F40E947E00E2
:100330000E947E000E949700C5C0863511F0863766
:1003400049F40E947E000E947E000E947E000E946E
:100350009700B8C0873511F0873739F40E947E00C6
:100360000E9497000E949700ADC0883511F0883731
:1003700049F40E9497000E947E000E947E000E9425
:100380009700A0C0893511F0893749F40E94970081
:100390000E947E000E9497000E94970093C08A35B9
:1003A00011F08A3749F40E9497000E9497000E943A
:1003B0007E000E947E0086C0803359F40E94970020
:1003C0000E9497000E9497000E9497000E94970049
:1003D00079C0813359F40E947E000E9497000E94E8
:1003E00097000E9497000E9497006CC0823359F4D6
:1003F0000E947E000E947E000E9497000E9497004B
:100400000E9497005FC0833359F40E947E000E94CF
:100410007E000E947E000E9497000E94970052C0BA
:10042000843359F40E947E000E947E000E947E0068
:100430000E947E000E94970045C0853359F40E94B7
:100440007E000E947E000E947E000E947E000E942C
:100450007E0038C0863359F40E9497000E947E00C7
:100460000E947E000E947E000E947E002BC0873387
:1004700059F40E9497000E9497000E947E000E94FB
:100480007E000E947E001EC0883359F40E949700AF
:100490000E9497000E9497000E947E000E947E00AA
:1004A00011C0893359F40E9497000E9497000E945E
:1004B00097000E9497000E947E0004C0803211F4D1
:1004C0000E9471002FEF8BE49DE12150804090400D
:1004D000E1F700C000002196F801EC0FFD1F8081BC
:1004E000811146CEDF91CF911F910F91089585B173
:1004F000806285B92FEF81EE94E0215080409040DA
:10050000E1F700C0000085B18F7D85B92FEF81EE46
:1005100094E0215080409040E1F700C0000085B198
:10052000806285B92FEF81EE94E0215080409040A9
:10053000E1F700C0000085B18F7D85B92FEF81EE16
:1005400094E0215080409040E1F700C0000085B168
:10055000806285B92FEF81EE94E021508040904079
:10056000E1F700C0000085B18F7D85B92FEF81EEE6
:1005700094E0215080409040E1F700C0000085B138
:10058000806285B92FEF81EE94E021508040904049
:10059000E1F700C0000085B18F7D85B92FEF81EEB6
:1005A00094E0215080409040E1F700C0000085B108
:1005B000806285B92FEF81EE94E021508040904019
:1005C000E1F700C0000085B18F7D85B92FEF83ED85
:1005D00090E3215080409040E1F700C00000089572
:1005E000CF93DF93CDB7DEB769970FB6F894DEBF30
:1005F0000FBECDBF89E1E0E0F1E0DE011196019090
:100600000D928A95E1F784B1806284B90E947702E5
:0E061000CE0101960E94B000FBCFF894FFCF00
:10061E004A6172726F6420526F77736F6E20383238
:0A062E003634353338343300000051
:00000001FF
